{
  "abi": [
    {
      "inputs": [
        {
          "internalType": "uint128",
          "name": "spotPrice",
          "type": "uint128"
        },
        {
          "internalType": "uint128",
          "name": "delta",
          "type": "uint128"
        },
        {
          "internalType": "uint256",
          "name": "numItems",
          "type": "uint256"
        },
        {
          "internalType": "uint256",
          "name": "feeMultiplier",
          "type": "uint256"
        },
        {
          "internalType": "uint256",
          "name": "protocolFeeMultiplier",
          "type": "uint256"
        }
      ],
      "name": "getBuyInfo",
      "outputs": [
        {
          "internalType": "enum CurveErrorCodes.Error",
          "name": "error",
          "type": "uint8"
        },
        {
          "internalType": "uint128",
          "name": "newSpotPrice",
          "type": "uint128"
        },
        {
          "internalType": "uint128",
          "name": "newDelta",
          "type": "uint128"
        },
        {
          "internalType": "uint256",
          "name": "inputValue",
          "type": "uint256"
        },
        {
          "internalType": "uint256",
          "name": "protocolFee",
          "type": "uint256"
        }
      ],
      "stateMutability": "pure",
      "type": "function"
    },
    {
      "inputs": [
        {
          "internalType": "uint128",
          "name": "spotPrice",
          "type": "uint128"
        },
        {
          "internalType": "uint128",
          "name": "delta",
          "type": "uint128"
        },
        {
          "internalType": "uint256",
          "name": "numItems",
          "type": "uint256"
        },
        {
          "internalType": "uint256",
          "name": "feeMultiplier",
          "type": "uint256"
        },
        {
          "internalType": "uint256",
          "name": "protocolFeeMultiplier",
          "type": "uint256"
        }
      ],
      "name": "getSellInfo",
      "outputs": [
        {
          "internalType": "enum CurveErrorCodes.Error",
          "name": "error",
          "type": "uint8"
        },
        {
          "internalType": "uint128",
          "name": "newSpotPrice",
          "type": "uint128"
        },
        {
          "internalType": "uint128",
          "name": "newDelta",
          "type": "uint128"
        },
        {
          "internalType": "uint256",
          "name": "outputValue",
          "type": "uint256"
        },
        {
          "internalType": "uint256",
          "name": "protocolFee",
          "type": "uint256"
        }
      ],
      "stateMutability": "pure",
      "type": "function"
    },
    {
      "inputs": [
        {
          "internalType": "uint128",
          "name": "delta",
          "type": "uint128"
        }
      ],
      "name": "validateDelta",
      "outputs": [
        {
          "internalType": "bool",
          "name": "",
          "type": "bool"
        }
      ],
      "stateMutability": "pure",
      "type": "function"
    },
    {
      "inputs": [
        {
          "internalType": "uint128",
          "name": "newSpotPrice",
          "type": "uint128"
        }
      ],
      "name": "validateSpotPrice",
      "outputs": [
        {
          "internalType": "bool",
          "name": "",
          "type": "bool"
        }
      ],
      "stateMutability": "pure",
      "type": "function"
    }
  ],
  "bytecode": {
    "object": "0x608060405234801561001057600080fd5b506103e8806100206000396000f3fe608060405234801561001057600080fd5b506004361061004c5760003560e01c8063097cc63d146100515780630ae67ccc1461007e5780637ca542ac146100a2578063a1bbb2e81461007e575b600080fd5b61006461005f366004610276565b6100b5565b6040516100759594939291906102c3565b60405180910390f35b61009261008c36600461030d565b50600190565b6040519015158152602001610075565b6100646100b0366004610276565b610186565b6000806000806000876000036100da5750600193506000925082915081905080610179565b6001600160801b03808b16908a1660006100f48b83610345565b6100fe848d61035e565b610108919061037d565b905061011d818a670de0b6b3a764000061023f565b93506000610134828c670de0b6b3a764000061023f565b905084610141828461039f565b61014b919061039f565b9550818e6001600160801b0316610162919061039f565b975061016e8c84610345565b965060009850505050505b9550955095509550959050565b6000806000806000876000036101ab5750600193506000925082915081905080610179565b6001600160801b03808b16908a1660006101c58b8361039f565b6101cf848d61035e565b6101d9919061037d565b90506101ee818a670de0b6b3a764000061023f565b93506000610205828c670de0b6b3a764000061023f565b9050846102128284610345565b61021c9190610345565b9550818e6001600160801b03166102339190610345565b975061016e8c8461039f565b828202831584820484141761025357600080fd5b0492915050565b80356001600160801b038116811461027157600080fd5b919050565b600080600080600060a0868803121561028e57600080fd5b6102978661025a565b94506102a56020870161025a565b94979496505050506040830135926060810135926080909101359150565b60a08101600387106102e557634e487b7160e01b600052602160045260246000fd5b9581526001600160801b03948516602082015292909316604083015260608201526080015290565b60006020828403121561031f57600080fd5b6103288261025a565b9392505050565b634e487b7160e01b600052601160045260246000fd5b808201808211156103585761035861032f565b92915050565b60008160001904831182151516156103785761037861032f565b500290565b60008261039a57634e487b7160e01b600052601260045260246000fd5b500490565b818103818111156103585761035861032f56fea2646970667358221220905740c68eb0d84a53fc2414f6db5c6e6d3f3fc2f92429d2a14883831a963d2d64736f6c63430008100033",
    "linkReferences": {}
  },
  "methodIdentifiers": {
    "getBuyInfo(uint128,uint128,uint256,uint256,uint256)": "7ca542ac",
    "getSellInfo(uint128,uint128,uint256,uint256,uint256)": "097cc63d",
    "validateDelta(uint128)": "0ae67ccc",
    "validateSpotPrice(uint128)": "a1bbb2e8"
  },
  "id": 42
}