{
  "abi": [
    {
      "inputs": [
        {
          "internalType": "uint128",
          "name": "spotPrice",
          "type": "uint128"
        },
        {
          "internalType": "uint128",
          "name": "delta",
          "type": "uint128"
        },
        {
          "internalType": "uint256",
          "name": "numItems",
          "type": "uint256"
        },
        {
          "internalType": "uint256",
          "name": "feeMultiplier",
          "type": "uint256"
        },
        {
          "internalType": "uint256",
          "name": "protocolFeeMultiplier",
          "type": "uint256"
        }
      ],
      "name": "getBuyInfo",
      "outputs": [
        {
          "internalType": "enum CurveErrorCodes.Error",
          "name": "error",
          "type": "uint8"
        },
        {
          "internalType": "uint128",
          "name": "newSpotPrice",
          "type": "uint128"
        },
        {
          "internalType": "uint128",
          "name": "newDelta",
          "type": "uint128"
        },
        {
          "internalType": "uint256",
          "name": "inputValue",
          "type": "uint256"
        },
        {
          "internalType": "uint256",
          "name": "protocolFee",
          "type": "uint256"
        }
      ],
      "stateMutability": "pure",
      "type": "function"
    },
    {
      "inputs": [
        {
          "internalType": "uint128",
          "name": "spotPrice",
          "type": "uint128"
        },
        {
          "internalType": "uint128",
          "name": "delta",
          "type": "uint128"
        },
        {
          "internalType": "uint256",
          "name": "numItems",
          "type": "uint256"
        },
        {
          "internalType": "uint256",
          "name": "feeMultiplier",
          "type": "uint256"
        },
        {
          "internalType": "uint256",
          "name": "protocolFeeMultiplier",
          "type": "uint256"
        }
      ],
      "name": "getSellInfo",
      "outputs": [
        {
          "internalType": "enum CurveErrorCodes.Error",
          "name": "error",
          "type": "uint8"
        },
        {
          "internalType": "uint128",
          "name": "newSpotPrice",
          "type": "uint128"
        },
        {
          "internalType": "uint128",
          "name": "newDelta",
          "type": "uint128"
        },
        {
          "internalType": "uint256",
          "name": "outputValue",
          "type": "uint256"
        },
        {
          "internalType": "uint256",
          "name": "protocolFee",
          "type": "uint256"
        }
      ],
      "stateMutability": "pure",
      "type": "function"
    },
    {
      "inputs": [
        {
          "internalType": "uint128",
          "name": "delta",
          "type": "uint128"
        }
      ],
      "name": "validateDelta",
      "outputs": [
        {
          "internalType": "bool",
          "name": "",
          "type": "bool"
        }
      ],
      "stateMutability": "pure",
      "type": "function"
    },
    {
      "inputs": [
        {
          "internalType": "uint128",
          "name": "newSpotPrice",
          "type": "uint128"
        }
      ],
      "name": "validateSpotPrice",
      "outputs": [
        {
          "internalType": "bool",
          "name": "",
          "type": "bool"
        }
      ],
      "stateMutability": "pure",
      "type": "function"
    }
  ],
  "bytecode": {
    "object": "0x608060405234801561001057600080fd5b506103f7806100206000396000f3fe608060405234801561001057600080fd5b506004361061004c5760003560e01c8063097cc63d146100515780630ae67ccc1461007e5780637ca542ac146100a2578063a1bbb2e81461007e575b600080fd5b61006461005f366004610282565b6100b5565b6040516100759594939291906102cf565b60405180910390f35b61009261008c366004610319565b50600190565b6040519015158152602001610075565b6100646100b0366004610282565b61018a565b6000806000806000876000036100da575060019350600092508291508190508061017d565b6001600160801b03808b16908a166100f28a82610351565b6100fc838c610369565b6101069190610388565b935061011b8489670de0b6b3a764000061024b565b92506000610132858b670de0b6b3a764000061024b565b905061013e8482610351565b61014890866103aa565b94506101548486610351565b610167906001600160801b038f166103aa565b96506101738b83610351565b9550600097505050505b9550955095509550959050565b6000806000806000876000036101af575060019350600092508291508190508061017d565b6001600160801b03808b16908a166101c78a826103aa565b6101d1838c610369565b6101db9190610388565b93506101f08489670de0b6b3a764000061024b565b92506000610207858b670de0b6b3a764000061024b565b90506102138482610351565b61021d9086610351565b945083858e6001600160801b03166102359190610351565b61023f91906103aa565b96506101738b836103aa565b828202831584820484141761025f57600080fd5b0492915050565b80356001600160801b038116811461027d57600080fd5b919050565b600080600080600060a0868803121561029a57600080fd5b6102a386610266565b94506102b160208701610266565b94979496505050506040830135926060810135926080909101359150565b60a08101600387106102f157634e487b7160e01b600052602160045260246000fd5b9581526001600160801b03948516602082015292909316604083015260608201526080015290565b60006020828403121561032b57600080fd5b61033482610266565b9392505050565b634e487b7160e01b600052601160045260246000fd5b600082198211156103645761036461033b565b500190565b60008160001904831182151516156103835761038361033b565b500290565b6000826103a557634e487b7160e01b600052601260045260246000fd5b500490565b6000828210156103bc576103bc61033b565b50039056fea2646970667358221220fe6c2a1645a843e36b5b84a484da2669e05e9c983e3c1e0b989d056aec4005a064736f6c634300080f0033",
    "linkReferences": {}
  },
  "methodIdentifiers": {
    "getBuyInfo(uint128,uint128,uint256,uint256,uint256)": "7ca542ac",
    "getSellInfo(uint128,uint128,uint256,uint256,uint256)": "097cc63d",
    "validateDelta(uint128)": "0ae67ccc",
    "validateSpotPrice(uint128)": "a1bbb2e8"
  },
  "id": 41
}